:020000040800F2
:100000000000022069160008B1160008B1160008A9
:10001000B1160008B1160008B11600080000000073
:10002000000000000000000000000000B116000801
:10003000B116000800000000B1160008B116000853
:10004000B1160008B1160008B1160008B116000874
:10005000B1160008B1160008B1160008B116000864
:10006000B1160008B1160008B1160008B116000854
:10007000B1160008B1160008B1160008B116000844
:10008000B1160008B1160008B1160008B116000834
:10009000B1160008B1160008B1160008B116000824
:1000A000B1160008B1160008B1160008B116000814
:1000B000B1160008B1160008B1160008B116000804
:1000C000B1160008B1160008B1160008B1160008F4
:1000D000B1160008B1160008C1090008F9090008A6
:1000E000B1160008B1160008B1160008B1160008D4
:1000F000B1160008B1160008B1160008B1160008C4
:10010000B1160008B1160008B1160008B1160008B3
:10011000B1160008B1160008B1160008B1160008A3
:10012000B1160008B1160008B1160008B116000893
:10013000B1160008B1160008B1160008B116000883
:10014000B1160008B1160008B1160008B116000873
:10015000B1160008B1160008B1160008B116000863
:10016000B1160008B1160008B1160008B116000853
:10017000B1160008B1160008B1160008B116000843
:08018000B1160008B1160008D9
:1001880010B5054C237833B9044B13B10448AFF3C9
:1001980000800123237010BD4C04002000000000E3
:1001A800EC19000808B5034B1BB103490348AFF32A
:1001B800008008BD0000000050040020EC19000871
:1001C800154B002B08BF134B9D46A3F5803A002121
:1001D8008B460F461348144A121A01F09BFA0F4B2C
:1001E800002B00D098470E4B002B00D098470020DA
:1001F800002104000D000D48002802D00C4801F031
:1002080051FB01F063FA2000290001F001FA01F026
:100218004DFA00BF000008000000000000000000C8
:10022800000000004C040020A8080020AD180008B9
:10023800B918000838B5204D20492B8820489BB2B2
:100248005A1C92B22A80CC5CE4B2214600F0D0F964
:100258002B88B3F5007F24BF00232B804D2C16D0AC
:10026800412C14D0532C1ED0A4F14403DBB2112B23
:100278000CD8144A22FA03F3DB0707D5124B1A7875
:100288004D2A03D1114A5C700123136038BD0E4B0F
:100298001A784D2A05D0B4F14D010C4A18BF012136
:1002A80011601C7038BD084B1A784D2AEED1074AE8
:1002B8005C700023136038BD7E0400208406002093
:1002C800D819000801410200040000206804002039
:1002D800044A054B12881B889BB2934200D0A9E7B9
:1002E800704700BF7E0400207A0400208842B8BF0F
:1002F80008467047F8B501F05DF8294C294D2A4F9A
:100308002A4E2B78412B0AD03FE001F06FF82728BE
:1003180060602B7810DD412B0ED100F09DFD3A88EE
:1003280033889BB29342F0D0FFF784FF01F05EF868
:10033800272860602B78EEDC4D2B26D000F02CFEB1
:1003480001F030F84FF4FA7000F006FC01F04EF8B6
:10035800A0604FF4FA7000F0FFFB01F027F84FF4AB
:10036800FA7000F0F9FB01F041F8E0604FF4FA7020
:1003780000F0F2FB01F01EF8D4E902329A420CDADE
:1003880000F0E2FD2B78412BC9D00023236000F058
:1003980003FEBDE8F84001F00DB800F0ADFDB0E790
:1003A80068040020040000207E0400207A04002055
:1003B80008B51A4B1B687BB1194B5B78443B112B72
:1003C8000AD8DFE803F01109090909090909180918
:1003D800090909091F26090A08BD642000F02EFD35
:1003E800BDE8084000F038BD642000F027FDBDE8F6
:1003F800084000F059BD322000F020FDBDE808405B
:1004080000F07ABD322000F019FDBDE8084000F088
:100418009BBDBDE8084000F0BFBD00BF68040020D8
:1004280004000020054B1B78412B04D04D2B00D035
:100438007047FFF7BDBFFFF75DBF00BF0400002096
:10044800114A124B116B41F0010110B41163116C88
:100458000F4C41F4003111641A6842F0A0021A608E
:100468001A6A42F4EE421A629A6842F020029A60CE
:100478009A6880B242F0800242F208019A602081B4
:10048800A1815DF8044B704700380240000002402B
:1004980000440040114A124B116B41F0080110B49E
:1004A8001163116C0F4C41F4802111641A6842F4F5
:1004B80020221A605A6A42F077025A629A6842F019
:1004C80020029A609A6880B242F0800242F20801E3
:1004D8009A602081A1815DF8044B70470038024082
:1004E800000C024000480040084A0949938923F457
:1004F80000531B041B0C402093814860938943F4EC
:10050800005343F024039381704700BF0044004028
:1005180000E100E0084A0949938923F400531B04C9
:100528001B0C802093814860938943F4005343F067
:1005380024039381704700BF0048004000E100E0B9
:10054800064B074A98890749024040209A81C1F81A
:1005580084009A8942F400529A817047004400400E
:10056800DFDFFFFF00E100E0064B074A98890749F3
:10057800024080209A81C1F884009A8942F400528E
:100588009A81704700480040DFDFFFFF00E100E08C
:10059800034A13885B06FCD580B29080704700BF81
:1005A80000440040034A13885B06FCD580B2908063
:1005B800704700BF004800400C4A30B4441E0D2567
:1005C80000F2FF3014F8011F49B113885B06FCD50F
:1005D80089B2918023780A2B03D08442F2D130BCAF
:1005E800704713885B06FCD59580F6E70044004009
:1005F8000FB42DE9F0498DB014AB53F8046B019397
:10060800327862B300246A4D6A4F234631464FF070
:100618000D08252A14D133445A78CAB1623A162AE9
:1006280000F29980DFE802F07F7564974297979708
:1006380097979797979797979739979797972600A8
:100648002B885806FCD592B2AA800B780A2B0BD0BF
:100658000134A4B22346325D3119002AD9D10DB034
:10066800BDE8F04904B070472B885B06FCD5A5F8B7
:100678000480EDE79B78019A622B02F1040112686D
:100688006FD0682B00F08680772B04BF0134A4B2AA
:10069800CDE900214FF4006055E0019B1A1D186850
:1006A8000192FFF789FF0134A4B2D1E7019B073318
:1006B80023F00703D3E900BC083307EACC02BBF1F7
:1006C800000F42EA5B7201934FF000007CF10003D7
:1006D8000CF08041B8BF42F0004250EA010300929A
:1006E8003CD0009B43F0804300934FF480702AE095
:1006F8009B78019A622B02F1040112683ED0682BA4
:100708004FD0772B04BF0134A4B2CDE900212020BB
:1007180019E0019B191D1A7801912B885B06FCD5FD
:1007280093B2AB80BFE79B78019A622B02F1040178
:1007380012681DD0682B27D0772BCDE9002104BF84
:100748000134A4B2042002AA694600F081FC02A880
:10075800FFF732FFA7E700230093A4E74FF4807068
:10076800F1E70134A4B2CDE900214FF40070EAE7C3
:100778000134A4B2CDE900210120E4E70134A4B298
:10078800CDE900210820DEE70134A4B2CDE900213B
:100798000220D8E70134A4B2CDE900214FF48060EB
:1007A800D1E70134A4B2CDE900211020CBE700BF86
:1007B80000440040F8FFFF3F0C4A30B4441E0D25AA
:1007C80000F2FF3014F8011F49B113885B06FCD50D
:1007D80089B2918023780A2B03D08442F2D130BCAD
:1007E800704713885B06FCD59580F6E70048004003
:1007F8000FB42DE9F0498DB014AB53F8046B019395
:10080800327862B300246A4D6A4F234631464FF06E
:100818000D08252A14D133445A78CAB1623A162AE7
:1008280000F29980DFE802F07F7564974297979706
:1008380097979797979797979739979797972600A6
:100848002B885806FCD592B2AA800B780A2B0BD0BD
:100858000134A4B22346325D3119002AD9D10DB032
:10086800BDE8F04904B070472B885B06FCD5A5F8B5
:100878000480EDE79B78019A622B02F1040112686B
:100888006FD0682B00F08680772B04BF0134A4B2A8
:10089800CDE900214FF4006055E0019B1A1D18684E
:1008A8000192FFF789FF0134A4B2D1E7019B073316
:1008B80023F00703D3E900BC083307EACC02BBF1F5
:1008C800000F42EA5B7201934FF000007CF10003D5
:1008D8000CF08041B8BF42F0004250EA0103009298
:1008E8003CD0009B43F0804300934FF480702AE093
:1008F8009B78019A622B02F1040112683ED0682BA2
:100908004FD0772B04BF0134A4B2CDE900212020B9
:1009180019E0019B191D1A7801912B885B06FCD5FB
:1009280093B2AB80BFE79B78019A622B02F1040176
:1009380012681DD0682B27D0772BCDE9002104BF82
:100948000134A4B2042002AA694600F081FB02A87F
:10095800FFF732FFA7E700230093A4E74FF4807066
:10096800F1E70134A4B2CDE900214FF40070EAE7C1
:100978000134A4B2CDE900210120E4E70134A4B296
:10098800CDE900210820DEE70134A4B2CDE9002139
:100998000220D8E70134A4B2CDE900214FF48060E9
:1009A800D1E70134A4B2CDE900211020CBE700BF84
:1009B80000480040F8FFFF3F0A4B1A88920610D5FE
:1009C800094A9988138809489BB2C9B2C154138847
:1009D80001339BB213801388B3F5007F24BF002333
:1009E80013807047004400407804002084040020ED
:1009F8000A4B1A88920610D5094A998853880948DB
:100A08009BB2C9B2C154538801339BB253805388F7
:100A1800B3F5007F24BF002353807047004800408F
:100A280078040020840600200C4B99881A8892B21A
:100A38008A4212D09A880A4892B2511C10B489B2DC
:100A4800084C9980A25C82809A885DF8044BB2F5C4
:100A5800007F24BF00229A807047704778040020E6
:100A680000440040840400200C4BD9885A8892B274
:100A78008A4212D0DA880A4892B2511C10B489B25C
:100A8800084CD980A25C8280DA885DF8044BB2F504
:100A9800007F24BF0022DA80704770477804002066
:100AA8000048004084060020014B5863704700BF8F
:100AB8000004004030B4254C2548236B43F0040360
:100AC800236303684D000221A9401943016043686C
:100AD8004360016A1F4B41F000710162216C53258C
:100AE80041F0020144F6206021641D85D8625A63F2
:100AF8001A8B42F068021A831A8B42F4D0421A8386
:100B08009A8B42F068029A839A8B42F4D0429A8375
:100B18001A8B42F068021A831A8C22F0020212041D
:100B2800120C1A841A8842F084021A809A8A42F0B7
:100B380001029A821A8C42F4885242F011021A84F5
:100B48001A8842F001021A8030BC7047003802400F
:100B580000080240000400401749184A0B6C43F093
:100B6800400330B40B64532584234FF47A741585FD
:100B7800D4621380938A43F001039382138843F06D
:100B88000103138050B1138ADB07FCD5138A23F0C5
:100B980001031B041B0C01381382F4D10749064AD0
:100BA8000B8823F001031B041B0C0B80136C23F030
:100BB8004003136430BC70470038024000180040FE
:100BC8001749184A0B6C43F0400330B40B640025F6
:100BD800842354241585D4621380938A43F0010337
:100BE8009382138843F00103138050B1138ADB0703
:100BF800FCD5138A23F001031B041B0C0138138254
:100C0800F4D10849064A0B8823F001031B041B0C86
:100C18000B80136C23F04003136430BC704700BF93
:100C2800003802400018004009490A4B0A6C30B4E9
:100C380042F008020A6453254FF0FF340022842052
:100C48001D85DC62188030BC9A805A62704700BFEC
:100C580000380240000C0040044B9A8A42F001021E
:100C68009A821A8842F001021A807047000C0040EC
:100C7800044A506A138823F001031B041B0C1380D9
:100C8800704700BF000C00400D490A6C4FF08043CC
:100C980042F0010230B484200A64532500224FF048
:100CA800FF341D85DC6218809A805A629A8A42F065
:100CB80001029A821A8842F001021A8030BC7047F9
:100CC800003802404FF08043586A70474FF0804325
:100CD8005B6A834205D30844984294BF00200120F0
:100CE8007047C043184488422CBF00200120704739
:100CF80030B42F4C2F4A206B2F49304B304D40F0E9
:100D080008002063206B40F002002063106840F068
:100D180014001060086840F42A200860086A40F04F
:100D280008500862486A40F022004862002050607B
:100D38004860916841F03C019160D168D160516987
:100D480021F002015161226C42F004022264532115
:100D58004FF4FA621985DA6258639863D8631864A5
:100D68001A8B42F068021A831A8B42F4D0421A8313
:100D78009A8B42F068029A839A8B42F4D0429A8303
:100D88001A8C2A401A841A8842F084021A809A8A95
:100D980042F001029A821A8C42F4885242F01102FF
:100DA8001A841A8842F001021A8030BC704700BFCA
:100DB80000380240000C02400004024000080040D5
:100DC800DDDDFFFF07EE900AF8EEE76A07EE901AFE
:100DD80006EE103AB8EEE77A07EE902A9FED145A1D
:100DE800DFED145A1448F8EEE77AF8EEC64A86EEB4
:100DF800856AC7EE056A87EE857AC4EE857A26EE9F
:100E0800256A66EEA56A27EE257A67EEA57ABCEE16
:100E1800C66AFCEEE66ABCEEC77AFCEEE77A80EDBD
:100E28000D6AC0ED0E6A80ED0F7AC0ED107A70473A
:100E38000000C8420000FA4400080040014B186056
:100E4800704700BF80040020024A536943F006033C
:100E580053617047000C02400E4B9FED0F6A93EDF3
:100E6800007ADFED0E6A0E4A0E49B8EEC77A002006
:100E7800C7EE067A67EEA67AFCEEE77AC2ED0D7A3F
:100E88009063D063C2ED107A4B6943F006034B615F
:100E9800704700BF800400200000C8420000FA44E8
:100EA80000080040000C02400E4B9FED0F6A93EDC6
:100EB800007ADFED0E6A0E4A0E49B8EEC77A0020B6
:100EC800C7EE067A506367EEA67AFCEEE77AC2EDC3
:100ED8000E7AC2ED0F7A10644B6943F006034B613A
:100EE800704700BF800400200000C8420000FA4498
:100EF80000080040000C02400E4B9FED0F6A93ED76
:100F0800007ADFED0E6A0E4A0E49B8EEC77A002065
:100F1800C7EE067A67EEA67AFCEEE77AC2ED0D7A9E
:100F28009063C2ED0F7A10644B6943F006034B617E
:100F3800704700BF800400200000C8420000FA4447
:100F480000080040000C02400E4B9FED0F6A93ED25
:100F5800007ADFED0E6A0E4A0E49B8EEC77A002015
:100F6800C7EE067A506367EEA67AFCEEE77AC2ED22
:100F78000E7AD063C2ED107A4B6943F006034B61D9
:100F8800704700BF800400200000C8420000FA44F7
:100F980000080040000C0240024A536923F006038F
:100FA80053617047000C0240F0B40D4A0D4F00F138
:100FB8000A053026914205F8016D08D3312400E076
:100FC8001C46891A631C9142DBB2F9D22C70A7FB2C
:100FD8000232A8424FEAD202ECD1F0BC704700BFFF
:100FE80000CA9A3BCDCCCCCC70B400F10A060024E0
:100FF80016F8013D302BE5B21FD00C8813550B882D
:101008006C1C0133E4B29BB20A2C0B8011D0C5F1E1
:101018000805061BEDB2751BC4F109040835044424
:1010280014F80109D0540B8801339BB2A5420B80F8
:10103800F6D10021D15470BC7047092C01D001347D
:10104800D6E7088813540B8801339BB20B80F0E76E
:101058002DE9F04F87B00023102817461370ADF81C
:101068000A3000F04A8120D9B0F5007F4BD07AD9F8
:10107800B0F5806F61D0B0F5006F13D10B6802F145
:1010880008041B0F092BD8B200F130038ABF373090
:10109800137010700B6801321B0194420B60F0D181
:1010A80000233B7207B0BDE8F08F022800F00E81E4
:1010B80017D9042840F01E810B6802F12000302463
:1010C8003125002BB4BF157014700B6801325B001A
:1010D80090420B60F5D1002387F8203007B0BDE8B7
:1010E800F08F0128DED10B6802F108003025312489
:1010F8001E064CBF147015700B6801325B009042DD
:101108000B60F5D1CCE70B68C3F30313092B8CBF35
:101118003733303313700B681A0103F00F03092BB0
:1011280094BF303337330A607B700B6800221B0191
:101138000B60BA7007B0BDE8F08F0B68141DC3F3DD
:101148000333092B03F130008ABF37331070137053
:101158000B6801321B01A2420B60F0D100233B71E6
:1011680007B0BDE8F08F202800F0C780B0F5807F79
:1011780098D191ED007AB5EEC07AF1EE10FA06D565
:101188002D220123B1EE477A3A70ADF80A30F7EE16
:10119800007AB4EEE77AF1EE10FA00F1D68040F367
:1011A800EA800024B2EE046A00E01C4667EE867A04
:1011B800631CB4EEE77AF1EE10FA9BB2F5DCC7EEE9
:1011C800866A4FF0200B0DF116086E48DFF8BCC197
:1011D80043460DF10C093026C7EE267A9FED6A7A50
:1011E800FCEEE76A16EE901AF8EE666A77EEE67A93
:1011F80067EE877AFCEEE77A17EE905A884203F892
:10120800016D06D83022091A01328142D2B2FAD2CF
:101218001A70ACFB002099454FEAD000EED10DF1D1
:101228000A0A51463A4648460193FFF7DDFE5549FA
:10123800DFF858E1019B46464FF0300CA94206F80A
:1012480001CD08D8312000E010466D1A421C8D42AD
:10125800D2B2F9D23070AEFB01219E424FEAD101E1
:10126800ECD12E233A46514648468DF80F30FFF709
:10127800BBFEBDF80A20531C65219BB2BBF12D0FA4
:10128800B954ADF80A3004D1023207F803B0ADF80A
:101298000A203C4A3D483021A24208F8011D07D8DF
:1012A8003023A41A01339442DBB2FAD288F8003012
:1012B800A0FB023246454FEAD202EDD13A465146EA
:1012C8004846FFF791FE07B0BDE8F08F0B6802F1C2
:1012D8001000302531241B044CBF147015700B68A6
:1012E80001325B0090420B60F5D100233B7407B0DC
:1012F800BDE8F08F08287FF4D5AE0A68002A07DA1F
:101308002D233B700A68012352420A60ADF80A3067
:101318001C491E4E0DF10C090DF1160430259142A1
:1013280004F8015D08D8312000E01846521A431C21
:101338008A42DBB2F9D22070A6FB0131A1454FEAFF
:10134800D101ECD10DF10A0AB8E7DFED116AB4EE6C
:10135800E67AF1EE10FA13D5F0EE667A012466EE1D
:10136800A76A0134B4EEE67AF1EE10FAA4B2F6D424
:101378004FF02D0B27E74FF6FF74DFED056A20E7E6
:101388000124F5E700CA9A3B00007A44CDCCCCCCC6
:10139800CDCCCC3D40F26452062144F62060FFF7E4
:1013A80089BB00BF40F27620FFF77EBB40F666009F
:1013B800FFF77ABB40F26450FFF776BB09490A4B46
:1013C8000A6B42F002020A631A68002142F48002A2
:1013D8001A6059609A6842F070729A60DA68DA6046
:1013E800704700BF003802400004024030B5264C68
:1013F80083B0636923F4006363610220FFF7E0FBB5
:10140800636943F4006363610A20FFF7D9FB6369EA
:1014180023F4006363612369DD0408D42369D804D5
:1014280005D42369D90402D42369DA04E1D5164D19
:101438002B6913F4805323D000240520FFF7C0FB49
:101448002B69DB0404F10104F7D407EE904ADFEDC1
:101458000F6A9FED0F6A9FED0F7AF8EE677A67EED5
:10146800A67AF6EE006A67EE867A67EEA67A67EEE7
:10147800877AFDEEE77ACDED017A019803B030BDA9
:101488000193019803B030BD000402403480373B1B
:10149800287E0C3D0000FA441C1A000800000020B9
:1014A8004C0400204C040020A8080020384B394880
:1014B8001A68002142F001021A6099601A6822F045
:1014C800847222F480321A6058601A6882B022F45A
:1014D80080221A60D960009101911A6842F4803222
:1014E8001A601A4603E0009BB3F5A06F09D0136891
:1014F80003F400330193009B01330093019B002BFD
:10150800F1D0234B1B6813F4003318BF0123019358
:10151800019B012B0BD0204BD3F888204FF00061A2
:1015280042F47002C3F88820996002B07047184BE3
:101538001A491A6C1A4842F080521A640A6842F42E
:1015480080420A609A689A609A6842F400429A60F7
:101558009A6842F4A0529A6058601A6842F0807201
:101568001A601A689201FCD50E49094A40F20560D2
:101578000860996821F003019960996841F00201B7
:101588009960936803F00C03082BFAD1C3E700BFF6
:10159800003802401030002400ED00E000700040E8
:1015A80008544007003C0240154A936803F00C03B6
:1015B800042B23D0082B09D0124B114A12499268E8
:1015C800C2F303128A5CD3400B61704750685168BC
:1015D80052684302C2F3881201F03F014CBF0B4B23
:1015E800084BB3FBF1F303FB02F3054A5268C2F35D
:1015F800014201325200B3FBF2F3DEE7034BDCE7B2
:10160800003802400024F4000800002000127A008C
:1016180008B54FF4B670FEF73DFF4FF4B670FEF70D
:101628000FFFFEF777FFFFF7B5FEFFF7C7FEFFF7DF
:101638005FFBFFF7B1FC41F28830FFF78DFA064DEA
:10164800064C2A8823889BB2934201D0FEF7F2FD0C
:10165800FEF7E8FEF5E700BF7E0400207A040020CC
:10166800002103E00B4B5B58435004310A480B4BF5
:1016780042189A42F6D30A4A02E0002342F8043B91
:10168800084B9A42F9D3FFF711FF00F01FF8FFF754
:10169800BFFF70471C1A0008000000204C040020FF
:1016A8004C040020A8080020FEE7000008B500212F
:1016B800044600F083F8044B1868C36B03B19847DD
:1016C800204600F09DF900BFE819000870B50D4EDE
:1016D8000D4D761BB61006D00024013455F8043B96
:1016E8009847A642F9D1094E094D761B00F07CF9BE
:1016F800B61006D00024013455F8043B9847A6429A
:10170800F9D170BD101A0008101A0008181A00083C
:10171800101A0008F0B4860743D0541E002A3ED0A1
:10172800CAB2034602E014F1FF3438D303F8012BA0
:101738009D07F8D1032C2BD9CDB245EA05250F2CEE
:1017480045EA054516D9A4F110073F0903F120061B
:1017580006EB071603F1100242E9045542E9025567
:101768001032B242F8D104F00F040137032C03EB16
:1017780007130DD91E462246043A032A46F8045B8D
:10178800FAD8221F22F003020432134404F003049F
:101798002CB1C9B21C4403F8011B9C42FBD1F0BC1C
:1017A800704714460346C5E7024B13B1024800F0E0
:1017B80079B8704700000000B91800082DE9F04F0B
:1017C800354B85B00F460390186800F095F8334BF9
:1017D8001B68019303F5A4730293B946019BD3F8E0
:1017E80048613EB3DDF808A04FF001087468651E33
:1017F8000FD4013406EB84040027B9F1000F20D080
:10180800D4F800314B451CD0013D6B1CA4F10404F5
:10181800F3D1234B73B1D6E90032002A34D1002B1F
:1018280032D03046CAF80030AFF30080DAF80060F2
:10183800002EDBD1184B186805B0BDE8F04F00F05A
:1018480063B873682268013BAB420CBF75602760C0
:10185800002AD9D0D6F88811D6F804B008FA05F3CA
:101868000B4208D1904773685B45B7D1DAF800306E
:10187800B342C9D0B2E7D6F88C01D4F8801003423D
:1018880007D103989047EEE7B2461E46002EADD129
:10189800D0E708469047E6E748040020E819000822
:1018A80000000000002301461A46184600F02EB832
:1018B80038B50A4C0A4D641BA4100AD004F18043C1
:1018C800013B05EB8305013C55F804399847002C8A
:1018D800F9D1BDE8384000F08DB800BF1C1A0008E7
:1018E800181A0008704700BF704700BF704700BF54
:1018F800704700BF704700BF704700BF01207047A6
:1019080001207047704700BF704700BF2DE9F843BA
:101918002B4D0646286898460F469146FFF7ECFF80
:10192800284B1C68D4F84831002B3DD05A681F2A30
:101938000DDC02F1010C16BB0232C3F804C02868A2
:1019480043F82270FFF7E0FF0020BDE8F8831E4B44
:101958007BB34FF4C870AFF30080034648B3D4F8A4
:1019680048210021C0E900214FF0010CC4F84801CA
:101978000A46C0F88811C0F88C11002EDCD003EBA1
:1019880082010124C1F88890D3F88801944020434B
:10199800022EC3F88801C1F80881CDD1D3F88C1183
:1019A8000C43C3F88C41C7E704F5A673C4F8483163
:1019B800BCE72868FFF7A8FF4FF0FF30C5E700BF76
:1019C80048040020E819000800000000FEE700BFF6
:1019D800446F62696C6920736D6F3A2025630A0051
:1019E8002000002000000000F8B500BFF8BC08BCCB
:1019F8009E467047F8B500BFF8BC08BC9E467047C5
:081A0800C0E7FF7F01000000B0
:081A1000B1170008AD01000848
:041A18008901000838
:101A1C00000000004D530600000000000000000014
:101A2C000102030406070809007A030A20000020BB
:101A3C00000000000C03002074030020DC030020D5
:101A4C00000000000000000000000000000000008A
:101A5C00000000000000000000000000000000007A
:101A6C00000000000000000000000000000000006A
:101A7C00000000000000000000000000000000005A
:101A8C00000000000000000000000000000000004A
:101A9C00000000000000000000000000000000003A
:101AAC00000000000000000000000000000000002A
:101ABC00000000000000000000000000000000001A
:101ACC00000000000000000000000000000000000A
:101ADC0000000000000000000100000000000000F9
:101AEC000E33CDAB34126DE6ECDE05000B000000BE
:101AFC0000000000000000000000000000000000DA
:101B0C0000000000000000000000000000000000C9
:101B1C0000000000000000000000000000000000B9
:101B2C0000000000000000000000000000000000A9
:0C1E5C00000000000000000084080020CE
:040000050800166970
:00000001FF
